{
  "contractName": "Betting",
  "abi": [
    {
      "inputs": [],
      "stateMutability": "nonpayable",
      "type": "constructor"
    },
    {
      "anonymous": false,
      "inputs": [
        {
          "indexed": false,
          "internalType": "address",
          "name": "bettor",
          "type": "address"
        },
        {
          "indexed": false,
          "internalType": "uint256",
          "name": "amount",
          "type": "uint256"
        },
        {
          "indexed": false,
          "internalType": "int256",
          "name": "competitor",
          "type": "int256"
        },
        {
          "indexed": false,
          "internalType": "uint256",
          "name": "balanceofbettor",
          "type": "uint256"
        }
      ],
      "name": "BetPlaced",
      "type": "event"
    },
    {
      "anonymous": false,
      "inputs": [
        {
          "indexed": false,
          "internalType": "uint256",
          "name": "balance",
          "type": "uint256"
        },
        {
          "indexed": false,
          "internalType": "bool",
          "name": "active",
          "type": "bool"
        },
        {
          "indexed": false,
          "internalType": "uint256",
          "name": "wins",
          "type": "uint256"
        },
        {
          "indexed": false,
          "internalType": "address",
          "name": "Address",
          "type": "address"
        },
        {
          "indexed": false,
          "internalType": "string",
          "name": "name",
          "type": "string"
        }
      ],
      "name": "BettorCreated",
      "type": "event"
    },
    {
      "inputs": [],
      "name": "admin",
      "outputs": [
        {
          "internalType": "address",
          "name": "",
          "type": "address"
        }
      ],
      "stateMutability": "view",
      "type": "function",
      "constant": true
    },
    {
      "inputs": [
        {
          "internalType": "uint256",
          "name": "",
          "type": "uint256"
        }
      ],
      "name": "bets",
      "outputs": [
        {
          "components": [
            {
              "internalType": "uint256",
              "name": "balance",
              "type": "uint256"
            },
            {
              "internalType": "bool",
              "name": "active",
              "type": "bool"
            },
            {
              "internalType": "uint256",
              "name": "wins",
              "type": "uint256"
            },
            {
              "internalType": "address",
              "name": "Address",
              "type": "address"
            },
            {
              "internalType": "string",
              "name": "name",
              "type": "string"
            }
          ],
          "internalType": "struct Betting.Bettor",
          "name": "bettor",
          "type": "tuple"
        },
        {
          "internalType": "uint256",
          "name": "amount",
          "type": "uint256"
        },
        {
          "internalType": "int256",
          "name": "competitor",
          "type": "int256"
        }
      ],
      "stateMutability": "view",
      "type": "function",
      "constant": true
    },
    {
      "inputs": [],
      "name": "bettingLocked",
      "outputs": [
        {
          "internalType": "bool",
          "name": "",
          "type": "bool"
        }
      ],
      "stateMutability": "view",
      "type": "function",
      "constant": true
    },
    {
      "inputs": [],
      "name": "bettingSessionStarted",
      "outputs": [
        {
          "internalType": "bool",
          "name": "",
          "type": "bool"
        }
      ],
      "stateMutability": "view",
      "type": "function",
      "constant": true
    },
    {
      "inputs": [],
      "name": "bettorCount",
      "outputs": [
        {
          "internalType": "int256",
          "name": "",
          "type": "int256"
        }
      ],
      "stateMutability": "view",
      "type": "function",
      "constant": true
    },
    {
      "inputs": [
        {
          "internalType": "uint256",
          "name": "",
          "type": "uint256"
        }
      ],
      "name": "bettors",
      "outputs": [
        {
          "internalType": "uint256",
          "name": "balance",
          "type": "uint256"
        },
        {
          "internalType": "bool",
          "name": "active",
          "type": "bool"
        },
        {
          "internalType": "uint256",
          "name": "wins",
          "type": "uint256"
        },
        {
          "internalType": "address",
          "name": "Address",
          "type": "address"
        },
        {
          "internalType": "string",
          "name": "name",
          "type": "string"
        }
      ],
      "stateMutability": "view",
      "type": "function",
      "constant": true
    },
    {
      "inputs": [],
      "name": "competitor1",
      "outputs": [
        {
          "internalType": "string",
          "name": "",
          "type": "string"
        }
      ],
      "stateMutability": "view",
      "type": "function",
      "constant": true
    },
    {
      "inputs": [],
      "name": "competitor1TotalBets",
      "outputs": [
        {
          "internalType": "uint256",
          "name": "",
          "type": "uint256"
        }
      ],
      "stateMutability": "view",
      "type": "function",
      "constant": true
    },
    {
      "inputs": [],
      "name": "competitor2",
      "outputs": [
        {
          "internalType": "string",
          "name": "",
          "type": "string"
        }
      ],
      "stateMutability": "view",
      "type": "function",
      "constant": true
    },
    {
      "inputs": [],
      "name": "competitor2TotalBets",
      "outputs": [
        {
          "internalType": "uint256",
          "name": "",
          "type": "uint256"
        }
      ],
      "stateMutability": "view",
      "type": "function",
      "constant": true
    },
    {
      "inputs": [],
      "name": "roundCounter",
      "outputs": [
        {
          "internalType": "int256",
          "name": "",
          "type": "int256"
        }
      ],
      "stateMutability": "view",
      "type": "function",
      "constant": true
    },
    {
      "inputs": [],
      "name": "roundStarted",
      "outputs": [
        {
          "internalType": "bool",
          "name": "",
          "type": "bool"
        }
      ],
      "stateMutability": "view",
      "type": "function",
      "constant": true
    },
    {
      "inputs": [],
      "name": "winner",
      "outputs": [
        {
          "internalType": "int256",
          "name": "",
          "type": "int256"
        }
      ],
      "stateMutability": "view",
      "type": "function",
      "constant": true
    },
    {
      "inputs": [
        {
          "internalType": "address",
          "name": "user",
          "type": "address"
        }
      ],
      "name": "getBalance",
      "outputs": [
        {
          "internalType": "uint256",
          "name": "",
          "type": "uint256"
        }
      ],
      "stateMutability": "view",
      "type": "function",
      "constant": true
    },
    {
      "inputs": [],
      "name": "startSession",
      "outputs": [],
      "stateMutability": "nonpayable",
      "type": "function"
    },
    {
      "inputs": [
        {
          "internalType": "string",
          "name": "_competitor1",
          "type": "string"
        },
        {
          "internalType": "string",
          "name": "_competitor2",
          "type": "string"
        }
      ],
      "name": "startRound",
      "outputs": [],
      "stateMutability": "nonpayable",
      "type": "function"
    },
    {
      "inputs": [
        {
          "internalType": "string",
          "name": "_name",
          "type": "string"
        }
      ],
      "name": "setName",
      "outputs": [],
      "stateMutability": "nonpayable",
      "type": "function"
    },
    {
      "inputs": [
        {
          "internalType": "int256",
          "name": "_competitor",
          "type": "int256"
        },
        {
          "internalType": "uint256",
          "name": "_betAmount",
          "type": "uint256"
        }
      ],
      "name": "placeBet",
      "outputs": [],
      "stateMutability": "payable",
      "type": "function",
      "payable": true
    },
    {
      "inputs": [],
      "name": "lockBets",
      "outputs": [],
      "stateMutability": "nonpayable",
      "type": "function"
    },
    {
      "inputs": [
        {
          "internalType": "int256",
          "name": "_winner",
          "type": "int256"
        }
      ],
      "name": "completeRound",
      "outputs": [],
      "stateMutability": "nonpayable",
      "type": "function"
    },
    {
      "inputs": [],
      "name": "settleBets",
      "outputs": [],
      "stateMutability": "nonpayable",
      "type": "function"
    },
    {
      "inputs": [],
      "name": "refundBets",
      "outputs": [],
      "stateMutability": "nonpayable",
      "type": "function"
    },
    {
      "inputs": [
        {
          "internalType": "address",
          "name": "bettorAddress",
          "type": "address"
        }
      ],
      "name": "getBettorBalance",
      "outputs": [
        {
          "internalType": "uint256",
          "name": "",
          "type": "uint256"
        }
      ],
      "stateMutability": "view",
      "type": "function",
      "constant": true
    },
    {
      "inputs": [
        {
          "internalType": "address",
          "name": "bettorAddress",
          "type": "address"
        }
      ],
      "name": "getBettorName",
      "outputs": [
        {
          "internalType": "string",
          "name": "",
          "type": "string"
        }
      ],
      "stateMutability": "view",
      "type": "function",
      "constant": true
    },
    {
      "inputs": [
        {
          "internalType": "address",
          "name": "bettorAddress",
          "type": "address"
        }
      ],
      "name": "getBettor",
      "outputs": [
        {
          "internalType": "uint256",
          "name": "",
          "type": "uint256"
        }
      ],
      "stateMutability": "view",
      "type": "function",
      "constant": true
    },
    {
      "inputs": [
        {
          "internalType": "address",
          "name": "bettorAddress",
          "type": "address"
        }
      ],
      "name": "bettorCheck",
      "outputs": [
        {
          "internalType": "bool",
          "name": "",
          "type": "bool"
        }
      ],
      "stateMutability": "view",
      "type": "function",
      "constant": true
    }
  ],
  "bytecode": "0x608060405234801561001057600080fd5b50600a80546001600160a01b03191633179055600060078190556004805462ffffff19169055600581905560068190556002556123f7806100526000396000f3fe6080604052600436106101815760003560e01c8063ac17e671116100d1578063d2780c121161008a578063f851a44011610064578063f851a44014610429578063f8b2cb4f14610461578063fe0ae16514610489578063febc14b11461049e57600080fd5b8063d2780c12146103de578063dfbf53ae146103fd578063f11da30d1461041357600080fd5b8063ac17e6711461033f578063b9e91ffd14610354578063bacba59614610369578063c0dbf9dd14610389578063c47f0027146103a9578063c7033137146103c957600080fd5b80635a82a7021161013e578063710565241161011857806371056524146102e1578063a0687fb714610301578063a35373af14610314578063a716ab9d1461032957600080fd5b80635a82a702146102815780635b73df74146102a157806366274a0c146102c157600080fd5b80630f5ee35c1461018657806322af00fa1461019d578063331cb074146101d55780633482b644146101f95780633c9229451461022a578063479e2c0b14610257575b600080fd5b34801561019257600080fd5b5061019b6104b4565b005b3480156101a957600080fd5b506101bd6101b8366004611fc5565b610527565b6040516101cc9392919061221a565b60405180910390f35b3480156101e157600080fd5b506101eb60065481565b6040519081526020016101cc565b34801561020557600080fd5b50610219610214366004611fc5565b610633565b6040516101cc95949392919061227c565b34801561023657600080fd5b5061024a610245366004611f9e565b61070e565b6040516101cc91906120e5565b34801561026357600080fd5b506004546102719060ff1681565b60405190151581526020016101cc565b34801561028d57600080fd5b5061019b61029c366004611fc5565b610861565b3480156102ad57600080fd5b506101eb6102bc366004611f9e565b610957565b3480156102cd57600080fd5b506101eb6102dc366004611f9e565b610a07565b3480156102ed57600080fd5b506102716102fc366004611f9e565b610ab9565b61019b61030f366004611fdd565b610b30565b34801561032057600080fd5b5061019b611181565b34801561033557600080fd5b506101eb60075481565b34801561034b57600080fd5b5061024a611342565b34801561036057600080fd5b5061024a6113d0565b34801561037557600080fd5b5061019b610384366004612039565b6113dd565b34801561039557600080fd5b506004546102719062010000900460ff1681565b3480156103b557600080fd5b5061019b6103c4366004611ffe565b6115ab565b3480156103d557600080fd5b5061019b6117d6565b3480156103ea57600080fd5b5060045461027190610100900460ff1681565b34801561040957600080fd5b506101eb60025481565b34801561041f57600080fd5b506101eb60055481565b34801561043557600080fd5b50600a54610449906001600160a01b031681565b6040516001600160a01b0390911681526020016101cc565b34801561046d57600080fd5b506101eb61047c366004611f9e565b6001600160a01b03163190565b34801561049557600080fd5b5061019b611cf7565b3480156104aa57600080fd5b506101eb60035481565b600a546001600160a01b031633146104e75760405162461bcd60e51b81526004016104de9061211a565b60405180910390fd5b60045460ff6101009091041615156001146105145760405162461bcd60e51b81526004016104de906121e3565b6004805462ff0000191662010000179055565b6008818154811061053757600080fd5b60009182526020918290206040805160a081018252600790930290910180548352600181015460ff1615159383019390935260028301549082015260038201546001600160a01b031660608201526004820180549293509091839160808401916105a09061232a565b80601f01602080910402602001604051908101604052809291908181526020018280546105cc9061232a565b80156106195780601f106105ee57610100808354040283529160200191610619565b820191906000526020600020905b8154815290600101906020018083116105fc57829003601f168201915b505050505081525050908060050154908060060154905083565b6009818154811061064357600080fd5b60009182526020909120600590910201805460018201546002830154600384015460048501805494965060ff9093169491936001600160a01b03909116929061068b9061232a565b80601f01602080910402602001604051908101604052809291908181526020018280546106b79061232a565b80156107045780601f106106d957610100808354040283529160200191610704565b820191906000526020600020905b8154815290600101906020018083116106e757829003601f168201915b5050505050905085565b606060005b60095481101561084057826001600160a01b03166009828154811061074857634e487b7160e01b600052603260045260246000fd5b60009182526020909120600360059092020101546001600160a01b0316141561082e576009818154811061078c57634e487b7160e01b600052603260045260246000fd5b906000526020600020906005020160040180546107a89061232a565b80601f01602080910402602001604051908101604052809291908181526020018280546107d49061232a565b80156108215780601f106107f657610100808354040283529160200191610821565b820191906000526020600020905b81548152906001019060200180831161080457829003601f168201915b5050505050915050919050565b8061083881612385565b915050610713565b50506040805180820190915260038152624e2f4160e81b6020820152919050565b600a546001600160a01b0316331461088b5760405162461bcd60e51b81526004016104de9061211a565b806001148061089a5750806002145b6108db5760405162461bcd60e51b815260206004820152601260248201527124b73b30b634b21031b7b6b832ba34ba37b960711b60448201526064016104de565b600254156109255760405162461bcd60e51b8152602060048201526017602482015276149bdd5b9908185b1c9958591e4818dbdb5c1b195d1959604a1b60448201526064016104de565b60045460ff6101009091041615156001146109525760405162461bcd60e51b81526004016104de906121e3565b600255565b6000805b6009548110156109cb57826001600160a01b03166009828154811061099057634e487b7160e01b600052603260045260246000fd5b60009182526020909120600360059092020101546001600160a01b031614156109b95792915050565b806109c381612385565b91505061095b565b5060405162461bcd60e51b815260206004820152601060248201526f10995d1d1bdc881b9bdd08199bdd5b9960821b60448201526064016104de565b6000805b600954811015610ab057826001600160a01b031660098281548110610a4057634e487b7160e01b600052603260045260246000fd5b60009182526020909120600360059092020101546001600160a01b03161415610a9e5760098181548110610a8457634e487b7160e01b600052603260045260246000fd5b906000526020600020906005020160000154915050919050565b80610aa881612385565b915050610a0b565b50600092915050565b6000805b600954811015610ab057826001600160a01b031660098281548110610af257634e487b7160e01b600052603260045260246000fd5b60009182526020909120600360059092020101546001600160a01b03161415610b1e5750600192915050565b80610b2881612385565b915050610abd565b80333111610b745760405162461bcd60e51b815260206004820152601160248201527002737ba1032b737bab3b410333ab732399607d1b60448201526064016104de565b60045460ff610100909104161515600114610ba15760405162461bcd60e51b81526004016104de906121e3565b60045462010000900460ff1615610c0a5760405162461bcd60e51b815260206004820152602760248201527f42657474696e67206973206c6f636b65642c20776169742074696c6c206e65786044820152661d081c9bdd5b9960ca1b60648201526084016104de565b600081118015610c1b575033318111155b610c375760405162461bcd60e51b81526004016104de9061215f565b33301415610c875760405162461bcd60e51b815260206004820181905260248201527f43616e6e6f74206265742066726f6d20636f6e7472616374206164647265737360448201526064016104de565b600082138015610c98575060028213155b610cb45760405162461bcd60e51b81526004016104de9061215f565b610cbd33610ab9565b610d175760405162461bcd60e51b815260206004820152602560248201527f506c656173652063686f736520796f7572206e616d65206265666f72652062656044820152647474696e6760d81b60648201526084016104de565b60005b600854811015610ec557336001600160a01b031660088281548110610d4f57634e487b7160e01b600052603260045260246000fd5b60009182526020909120600360079092020101546001600160a01b03161415610eb3578160088281548110610d9457634e487b7160e01b600052603260045260246000fd5b9060005260206000209060070201600501819055508260088281548110610dcb57634e487b7160e01b600052603260045260246000fd5b9060005260206000209060070201600601819055508160088281548110610e0257634e487b7160e01b600052603260045260246000fd5b90600052602060002090600702016000016000016000828254610e259190612313565b925050819055507f73e358482860a99dd2ef2a70e93ab769511cd83e476fbbde7091a7c22133d00b33838560088581548110610e7157634e487b7160e01b600052603260045260246000fd5b600091825260209182902060079091020154604080516001600160a01b03909616865291850193909352830152606082015260800160405180910390a1505050565b80610ebd81612385565b915050610d1a565b50600860405180606001604052806009610ede33610957565b81548110610efc57634e487b7160e01b600052603260045260246000fd5b60009182526020918290206040805160a081018252600590930290910180548352600181015460ff1615159383019390935260028301549082015260038201546001600160a01b03166060820152600482018054919291608084019190610f629061232a565b80601f0160208091040260200160405190810160405280929190818152602001828054610f8e9061232a565b8015610fdb5780601f10610fb057610100808354040283529160200191610fdb565b820191906000526020600020905b815481529060010190602001808311610fbe57829003601f168201915b5050509190925250505081526020808201859052604091820186905283546001808201865560009586529482902084518051600790930290910191825580830151958201805460ff19169615159690961790955591840151600283015560608401516003830180546001600160a01b0319166001600160a01b039092169190911790556080840151805193949293849261107c926004850192910190611dc9565b505050602082015181600501556040820151816006015550508060096110a133610957565b815481106110bf57634e487b7160e01b600052603260045260246000fd5b906000526020600020906005020160000160008282546110df9190612313565b909155507f73e358482860a99dd2ef2a70e93ab769511cd83e476fbbde7091a7c22133d00b905033828461111283610a07565b604080516001600160a01b039095168552602085019390935291830152606082015260800160405180910390a1816001141561116557806005600082825461115a91906122bc565b9091555061117d9050565b806006600082825461117791906122bc565b90915550505b5050565b600a546001600160a01b031633146111ab5760405162461bcd60e51b81526004016104de9061211a565b600254156111f55760405162461bcd60e51b8152602060048201526017602482015276149bdd5b9908185b1c9958591e4818dbdb5c1b195d1959604a1b60448201526064016104de565b60045460ff6101009091041615156001146112225760405162461bcd60e51b81526004016104de906121e3565b6000805b600854811015611339576008818154811061125157634e487b7160e01b600052603260045260246000fd5b90600052602060002090600702016005015460096112ab6008848154811061128957634e487b7160e01b600052603260045260246000fd5b60009182526020909120600360079092020101546001600160a01b0316610957565b815481106112c957634e487b7160e01b600052603260045260246000fd5b906000526020600020906005020160000160008282546112e991906122bc565b9250508190555060006008828154811061131357634e487b7160e01b600052603260045260246000fd5b60009182526020909120600560079092020101558061133181612385565b915050611226565b50506000600255565b6000805461134f9061232a565b80601f016020809104026020016040519081016040528092919081815260200182805461137b9061232a565b80156113c85780601f1061139d576101008083540402835291602001916113c8565b820191906000526020600020905b8154815290600101906020018083116113ab57829003601f168201915b505050505081565b6001805461134f9061232a565b600a546001600160a01b031633146114075760405162461bcd60e51b81526004016104de9061211a565b60045460ff166114595760405162461bcd60e51b815260206004820152601760248201527f53657373696f6e206e6f7420796574205374617274656400000000000000000060448201526064016104de565b6000825111801561146c57506032825111155b6114b85760405162461bcd60e51b815260206004820152601960248201527f496e76616c696420636f6d70657469746f722031206e616d650000000000000060448201526064016104de565b600081511180156114cb57506032815111155b6115175760405162461bcd60e51b815260206004820152601960248201527f496e76616c696420636f6d70657469746f722032206e616d650000000000000060448201526064016104de565b600254156115375760405162461bcd60e51b81526004016104de906121ac565b815161154a906000906020850190611dc9565b50805161155e906001906020840190611dc9565b506004805461ff00191661010017905560006005819055600681905561158690600890611e4d565b6004805462ff000019169055600380549060006115a283612365565b91905055505050565b60028151101580156115bf5750600c815111155b6116215760405162461bcd60e51b815260206004820152602d60248201527f4e616d65206d757374206265206265747765656e203220616e6420313220636860448201526c6172616374657273206c6f6e6760981b60648201526084016104de565b61162a33610ab9565b611785576007805490600061163e83612365565b90915550506040805160a0810182526064815260016020808301828152600094840185815233606086019081526080860188815260098054968701815590975285517f6e1540171b6c0c960b71a7020d9f60077f6af931a8bbf590da0223dacf75c7af600590960295860190815592517f6e1540171b6c0c960b71a7020d9f60077f6af931a8bbf590da0223dacf75c7b08601805460ff191691151591909117905590517f6e1540171b6c0c960b71a7020d9f60077f6af931a8bbf590da0223dacf75c7b1850155517f6e1540171b6c0c960b71a7020d9f60077f6af931a8bbf590da0223dacf75c7b2840180546001600160a01b0319166001600160a01b039092169190911790559351805193949361177f937f6e1540171b6c0c960b71a7020d9f60077f6af931a8bbf590da0223dacf75c7b301929190910190611dc9565b50505050565b80600961179133610957565b815481106117af57634e487b7160e01b600052603260045260246000fd5b9060005260206000209060050201600401908051906020019061117d929190611dc9565b50565b600a546001600160a01b031633146118005760405162461bcd60e51b81526004016104de9061211a565b60025461181f5760405162461bcd60e51b81526004016104de906121ac565b600080600060088054905067ffffffffffffffff81111561185057634e487b7160e01b600052604160045260246000fd5b6040519080825280602002602001820160405280156118cb57816020015b6118b8604080516101008101909152600060608083018281526080840183905260a0840183905260c084019290925260e08301528190815260200160008152602001600081525090565b81526020019060019003908161186e5790505b5090506000805b600854811015611b61576002546008828154811061190057634e487b7160e01b600052603260045260246000fd5b9060005260206000209060070201600601541415611b07576008818154811061193957634e487b7160e01b600052603260045260246000fd5b60009182526020909120604080516101008101909152600790920201805460608301908152600182015460ff1615156080840152600282015460a084015260038201546001600160a01b031660c0840152600482018054849291849160e0850191906119a49061232a565b80601f01602080910402602001604051908101604052809291908181526020018280546119d09061232a565b8015611a1d5780601f106119f257610100808354040283529160200191611a1d565b820191906000526020600020905b815481529060010190602001808311611a0057829003601f168201915b505050505081525050815260200160058201548152602001600682015481525050838381518110611a5e57634e487b7160e01b600052603260045260246000fd5b60200260200101819052508180611a7490612385565b925050611abc60088281548110611a9b57634e487b7160e01b600052603260045260246000fd5b90600052602060002090600702016005015486611d5590919063ffffffff16565b945060088181548110611adf57634e487b7160e01b600052603260045260246000fd5b600091825260208220600260079092020101805491611afd83612385565b9190505550611b4f565b611b4c60088281548110611b2b57634e487b7160e01b600052603260045260246000fd5b90600052602060002090600702016005015485611d5590919063ffffffff16565b93505b80611b5981612385565b9150506118d2565b506000611b6e85856122bc565b905060005b82811015611cea57611bd46040518060400160405280600881526020016703132b337b9329d160c51b815250858381518110611bbf57634e487b7160e01b600052603260045260246000fd5b60200260200101516000015160000151611d68565b81848281518110611bf557634e487b7160e01b600052603260045260246000fd5b60200260200101516020015187611c0c91906122d4565b611c1691906122f4565b6009611c50868481518110611c3b57634e487b7160e01b600052603260045260246000fd5b60200260200101516000015160600151610957565b81548110611c6e57634e487b7160e01b600052603260045260246000fd5b90600052602060002090600502016000016000828254611c8e91906122bc565b92505081905550611cd860405180604001604052806007815260200166030b33a32b91d160cd1b815250858381518110611bbf57634e487b7160e01b600052603260045260246000fd5b80611ce281612385565b915050611b73565b5050600060025550505050565b600a546001600160a01b03163314611d215760405162461bcd60e51b81526004016104de9061211a565b60025415611d415760405162461bcd60e51b81526004016104de906121ac565b6004805460ff191660011790556000600355565b6000611d6182846122bc565b9392505050565b61117d8282604051602401611d7e9291906120f8565b60408051601f198184030181529190526020810180516001600160e01b0316632d839cb360e21b17905280516a636f6e736f6c652e6c6f67602083016000808483855afa5050505050565b828054611dd59061232a565b90600052602060002090601f016020900481019282611df75760008555611e3d565b82601f10611e1057805160ff1916838001178555611e3d565b82800160010185558215611e3d579182015b82811115611e3d578251825591602001919060010190611e22565b50611e49929150611e6e565b5090565b50805460008255600702906000526020600020908101906117d39190611e83565b5b80821115611e495760008155600101611e6f565b80821115611e4957600080825560018201805460ff19169055600282018190556003820180546001600160a01b03191690558181611ec46004830182611edd565b5050600060058301819055600683015550600701611e83565b508054611ee99061232a565b6000825580601f10611ef9575050565b601f0160209004906000526020600020908101906117d39190611e6e565b600082601f830112611f27578081fd5b813567ffffffffffffffff80821115611f4257611f426123ab565b604051601f8301601f19908116603f01168101908282118183101715611f6a57611f6a6123ab565b81604052838152866020858801011115611f82578485fd5b8360208701602083013792830160200193909352509392505050565b600060208284031215611faf578081fd5b81356001600160a01b0381168114611d61578182fd5b600060208284031215611fd6578081fd5b5035919050565b60008060408385031215611fef578081fd5b50508035926020909101359150565b60006020828403121561200f578081fd5b813567ffffffffffffffff811115612025578182fd5b61203184828501611f17565b949350505050565b6000806040838503121561204b578182fd5b823567ffffffffffffffff80821115612062578384fd5b61206e86838701611f17565b93506020850135915080821115612083578283fd5b5061209085828601611f17565b9150509250929050565b60008151808452815b818110156120bf576020818501810151868301820152016120a3565b818111156120d05782602083870101525b50601f01601f19169290920160200192915050565b602081526000611d61602083018461209a565b60408152600061210b604083018561209a565b90508260208301529392505050565b60208082526025908201527f4f6e6c79207468652061646d696e2063616e2063616c6c20746869732066756e60408201526431ba34b7b760d91b606082015260800190565b6020808252602d908201527f426574206d7573742062652067726561746572207468616e203020627574206c60408201526c657373207468616e203130302160981b606082015260800190565b60208082526017908201527f526f756e64206e6f742079657420636f6d706c65746564000000000000000000604082015260600190565b60208082526019908201527f526f756e6420686173206e6f7420737461727465642079657400000000000000604082015260600190565b6060815283516060820152602084015115156080820152604084015160a082015260018060a01b0360608501511660c08201526000608085015160a060e084015261226961010084018261209a565b6020840195909552505060400152919050565b858152841515602082015283604082015260018060a01b038316606082015260a0608082015260006122b160a083018461209a565b979650505050505050565b600082198211156122cf576122cf612395565b500190565b6000826122ef57634e487b7160e01b81526012600452602481fd5b500490565b600081600019048311821515161561230e5761230e612395565b500290565b60008282101561232557612325612395565b500390565b600181811c9082168061233e57607f821691505b6020821081141561235f57634e487b7160e01b600052602260045260246000fd5b50919050565b60006001600160ff1b0382141561237e5761237e612395565b5060010190565b600060001982141561237e5761237e5b634e487b7160e01b600052601160045260246000fd5b634e487b7160e01b600052604160045260246000fdfea264697066735822122061f04b186d0d3cca2d52308ab2dd3e5699e41cb9cb46738940f8454220b41d1464736f6c63430008040033",
  "immutableReferences": {},
  "source": "// SPDX-License-Identifier: MIT\r\npragma solidity ^0.8.4;\r\nimport \"@openzeppelin/contracts/utils/math/SafeMath.sol\";\r\nimport \"hardhat/console.sol\";\r\n\r\n\r\ncontract Betting {\r\n\r\n    using SafeMath for uint;\r\n\r\n    string public competitor1;\r\n    string public competitor2;\r\n    int public winner;\r\n    int public roundCounter;\r\n    bool public bettingSessionStarted;\r\n    bool public roundStarted;\r\n    bool public bettingLocked;\r\n    uint256 public competitor1TotalBets;\r\n    uint256 public competitor2TotalBets;\r\n    int public bettorCount;\r\n\r\n\r\n    struct Bet {\r\n        Bettor bettor;\r\n        uint amount;\r\n        int competitor;\r\n        \r\n    }\r\n    struct Bettor {\r\n        uint balance;\r\n        bool active;\r\n        uint wins;\r\n        address Address;\r\n        string name;\r\n        \r\n    }\r\n\r\n    Bet[] public bets;\r\n    Bettor[] public bettors;\r\n\r\n    address public admin;\r\n\r\n    constructor() public {\r\n        admin = msg.sender;\r\n        bettorCount = 0;\r\n        bettingSessionStarted = false;\r\n        roundStarted = false;\r\n        bettingLocked = false;\r\n        competitor1TotalBets = 0;\r\n        competitor2TotalBets = 0;\r\n        winner = 0;\r\n    }\r\n\r\n    modifier onlyAdmin {\r\n        require(msg.sender == admin, \"Only the admin can call this function\");\r\n        _;\r\n    }\r\n\r\n    function getBalance(address user) public view returns (uint) {\r\n        return address(user).balance;\r\n    }\r\n    \r\n    function sendFunds(address payable _to, uint256 amount) internal {\r\n        (bool sent, bytes memory data) = _to.call{value: amount}(\"\");\r\n        require(sent, \"Failed to send Ether\");\r\n    }\r\n\r\n    function startSession() public onlyAdmin {\r\n        require(winner == 0, \"Round not yet completed\");\r\n        bettingSessionStarted = true;\r\n        roundCounter = 0;\r\n    }\r\n\r\n    function startRound(string memory _competitor1, string memory _competitor2) public onlyAdmin {\r\n        require(bettingSessionStarted, \"Session not yet Started\");\r\n        require(bytes(_competitor1).length > 0 && bytes(_competitor1).length <= 50, \"Invalid competitor 1 name\");\r\n        require(bytes(_competitor2).length > 0 && bytes(_competitor2).length <= 50, \"Invalid competitor 2 name\");\r\n        require(winner == 0, \"Round not yet completed\");\r\n\r\n        competitor1 = _competitor1;\r\n        competitor2 = _competitor2;\r\n        roundStarted = true;\r\n        competitor1TotalBets = 0;\r\n        competitor2TotalBets = 0;\r\n        delete bets;\r\n        bettingLocked = false;\r\n        roundCounter++;\r\n    }\r\n    function setName(string memory _name) public {\r\n        require(bytes(_name).length >= 2 && bytes(_name).length <= 12, \"Name must be between 2 and 12 characters long\" );\r\n\r\n        // If bettor doesn't exist then create the Bettor and add to array\r\n        if (!bettorCheck(msg.sender)) {\r\n            bettorCount ++;\r\n            bettors.push(Bettor({\r\n                Address: msg.sender,\r\n                balance: 100,\r\n                wins: 0,\r\n                active: true,\r\n                name: _name\r\n            }));\r\n        }else{\r\n            bettors[getBettor(msg.sender)].name = _name;\r\n        }\r\n        \r\n    }\r\n\r\n\r\n    function placeBet(int _competitor, uint _betAmount) public payable {\r\n        require(getBalance(payable(msg.sender)) > _betAmount, \"Not enough funds \");\r\n        require(roundStarted == true, \"Round has not started yet\");\r\n        require(bettingLocked == false, \"Betting is locked, wait till next round\");\r\n        require(_betAmount > 0 && _betAmount <= msg.sender.balance, \"Bet must be greater than 0 but less than 100!\");\r\n        require(msg.sender != address(this), \"Cannot bet from contract address\");\r\n        require(_competitor > 0 && _competitor <= 2, \"Bet must be greater than 0 but less than 100!\");\r\n        require(bettorCheck(msg.sender), \"Please chose your name before betting\");\r\n\r\n\r\n        for (uint i = 0; i < bets.length; i++) {\r\n            if (bets[i].bettor.Address == msg.sender) {\r\n                bets[i].amount = _betAmount;\r\n                bets[i].competitor = _competitor;\r\n                bets[i].bettor.balance -= _betAmount;\r\n                emit BetPlaced(msg.sender, _betAmount, _competitor,bets[i].bettor.balance);\r\n                return;\r\n            }\r\n        }\r\n\r\n        bets.push(Bet({\r\n            bettor: bettors[getBettor(msg.sender)],\r\n            amount: _betAmount,\r\n            competitor: _competitor\r\n        }));\r\n        bettors[getBettor(msg.sender)].balance -= _betAmount;\r\n        emit BetPlaced(msg.sender, _betAmount, _competitor, getBettorBalance(msg.sender));\r\n        if (_competitor == 1) {\r\n            competitor1TotalBets += _betAmount;\r\n        } else {\r\n            competitor2TotalBets += _betAmount;\r\n        }\r\n    }\r\n\r\n    function lockBets() public onlyAdmin {\r\n        require(roundStarted == true, \"Round has not started yet\");\r\n        bettingLocked = true;\r\n    }\r\n\r\n    function completeRound(int _winner) public onlyAdmin {\r\n        require(_winner == 1 || _winner == 2, \"Invalid competitor\");\r\n        require(winner == 0, \"Round already completed\");\r\n        require(roundStarted == true, \"Round has not started yet\");\r\n\r\n        winner = _winner;\r\n    }\r\n\r\n    function settleBets() public onlyAdmin {\r\n        require(winner != 0, \"Round not yet completed\");\r\n\r\n        uint totalAmountWinning = 0;\r\n        uint totalAmountLosing = 0;\r\n        Bet[] memory winningBets = new Bet[](bets.length);\r\n\r\n        // Create an array of all bets that were placed on the winner and add up the total amount placed on the loser and the winner\r\n        uint numWinningBets = 0;\r\n        for (uint i = 0; i < bets.length; i++) {\r\n            if (bets[i].competitor == winner) {\r\n                winningBets[numWinningBets] = bets[i];\r\n                numWinningBets++;\r\n                totalAmountWinning = totalAmountWinning.add(bets[i].amount);\r\n                bets[i].bettor.wins++;\r\n            } else {\r\n                totalAmountLosing = totalAmountLosing.add(bets[i].amount);\r\n            }\r\n        }\r\n\r\n        // Calculate the total amount of money won by the winning bettors\r\n        uint totalPool = totalAmountLosing + totalAmountWinning;\r\n        for (uint i = 0; i < numWinningBets; i++) {\r\n            // Calculate the amount to transfer to the bettor\r\n            console.log(\"before: \",winningBets[i].bettor.balance);\r\n            bettors[getBettor(winningBets[i].bettor.Address)].balance += ((totalAmountWinning / winningBets[i].amount) * totalPool);\r\n            console.log(\"after: \",winningBets[i].bettor.balance);\r\n        }\r\n        winner = 0;\r\n    }\r\n\r\n\r\n    function refundBets() public onlyAdmin {\r\n        require(winner == 0, \"Round already completed\");\r\n        require(roundStarted == true, \"Round has not started yet\");\r\n\r\n        uint256 amount = 0;\r\n        for (uint i = 0; i < bets.length; i++) {\r\n            bettors[getBettor(bets[i].bettor.Address)].balance += bets[i].amount;\r\n            bets[i].amount = 0;\r\n        }\r\n        winner = 0;\r\n    }\r\n\r\n    // Assisting functions\r\n\r\n    function getBettorBalance(address bettorAddress) public view returns (uint256) {\r\n        for (uint256 i = 0; i < bettors.length; i++) {\r\n            if (bettors[i].Address == bettorAddress) {\r\n                return bettors[i].balance;\r\n            }\r\n        }\r\n        // If the address is not found, return 0\r\n        return 0;\r\n    }\r\n    function getBettorName(address bettorAddress) public view returns (string memory) {\r\n        for (uint256 i = 0; i < bettors.length; i++) {\r\n            if (bettors[i].Address == bettorAddress) {\r\n                return bettors[i].name;\r\n            }\r\n        }\r\n        // If the bettor is not found, return N/A\r\n        return \"N/A\";\r\n    }\r\n    function getBettor(address bettorAddress) public view returns (uint) {\r\n        for (uint i = 0; i < bettors.length; i++) {\r\n            if (bettors[i].Address == bettorAddress) {\r\n                // If bettor is found, return the bettor's place in array\r\n                return i;\r\n            }\r\n        }\r\n        // If the bettor is not found, revert\r\n        revert(\"Bettor not found\");\r\n    }\r\n    function bettorCheck(address bettorAddress) public view returns (bool) {\r\n        for (uint i = 0; i < bettors.length; i++) {\r\n            if (bettors[i].Address == bettorAddress) {\r\n                return true;\r\n            }\r\n        }\r\n        // If the address is not found, return false\r\n        return false;\r\n\r\n    }\r\n\r\n\r\n    event BetPlaced(address bettor, uint amount, int competitor, uint balanceofbettor);\r\n    event BettorCreated(uint balance, bool active, uint wins, address Address, string name);\r\n}\r\n\r\n\r\n\r\n",
  "sourcePath": "C:\\Users\\lil beep\\Documents\\AA ETHEREUM DISS\\ETANG\\contracts\\Betting.sol",
  "compiler": {
    "name": "solc",
    "version": "0.8.4+commit.c7e474f2.Emscripten.clang"
  },
  "schemaVersion": "3.4.13",
  "updatedAt": "2023-05-02T17:44:24.197Z",
  "networkType": "ethereum",
  "devdoc": {
    "kind": "dev",
    "methods": {},
    "version": 1
  },
  "userdoc": {
    "kind": "user",
    "methods": {},
    "version": 1
  }
}