{
  "contractName": "BettingDapp",
  "abi": [
    {
      "inputs": [
        {
          "internalType": "string",
          "name": "_competitor1",
          "type": "string"
        },
        {
          "internalType": "string",
          "name": "_competitor2",
          "type": "string"
        },
        {
          "internalType": "uint256",
          "name": "_betAmount",
          "type": "uint256"
        }
      ],
      "payable": false,
      "stateMutability": "nonpayable",
      "type": "constructor"
    },
    {
      "constant": true,
      "inputs": [],
      "name": "betAmount",
      "outputs": [
        {
          "internalType": "uint256",
          "name": "",
          "type": "uint256"
        }
      ],
      "payable": false,
      "stateMutability": "view",
      "type": "function"
    },
    {
      "constant": true,
      "inputs": [
        {
          "internalType": "uint256",
          "name": "",
          "type": "uint256"
        }
      ],
      "name": "bets",
      "outputs": [
        {
          "internalType": "address payable",
          "name": "bettor",
          "type": "address"
        },
        {
          "internalType": "uint256",
          "name": "amount",
          "type": "uint256"
        },
        {
          "internalType": "bool",
          "name": "isWinner",
          "type": "bool"
        }
      ],
      "payable": false,
      "stateMutability": "view",
      "type": "function"
    },
    {
      "constant": true,
      "inputs": [],
      "name": "betsLocked",
      "outputs": [
        {
          "internalType": "bool",
          "name": "",
          "type": "bool"
        }
      ],
      "payable": false,
      "stateMutability": "view",
      "type": "function"
    },
    {
      "constant": true,
      "inputs": [
        {
          "internalType": "address",
          "name": "",
          "type": "address"
        }
      ],
      "name": "bettors",
      "outputs": [
        {
          "internalType": "uint256",
          "name": "",
          "type": "uint256"
        }
      ],
      "payable": false,
      "stateMutability": "view",
      "type": "function"
    },
    {
      "constant": true,
      "inputs": [],
      "name": "competitor1",
      "outputs": [
        {
          "internalType": "string",
          "name": "",
          "type": "string"
        }
      ],
      "payable": false,
      "stateMutability": "view",
      "type": "function"
    },
    {
      "constant": true,
      "inputs": [],
      "name": "competitor2",
      "outputs": [
        {
          "internalType": "string",
          "name": "",
          "type": "string"
        }
      ],
      "payable": false,
      "stateMutability": "view",
      "type": "function"
    },
    {
      "constant": true,
      "inputs": [],
      "name": "owner",
      "outputs": [
        {
          "internalType": "address",
          "name": "",
          "type": "address"
        }
      ],
      "payable": false,
      "stateMutability": "view",
      "type": "function"
    },
    {
      "constant": true,
      "inputs": [],
      "name": "roundComplete",
      "outputs": [
        {
          "internalType": "bool",
          "name": "",
          "type": "bool"
        }
      ],
      "payable": false,
      "stateMutability": "view",
      "type": "function"
    },
    {
      "constant": true,
      "inputs": [],
      "name": "totalBets",
      "outputs": [
        {
          "internalType": "uint256",
          "name": "",
          "type": "uint256"
        }
      ],
      "payable": false,
      "stateMutability": "view",
      "type": "function"
    },
    {
      "constant": true,
      "inputs": [],
      "name": "winner",
      "outputs": [
        {
          "internalType": "uint256",
          "name": "",
          "type": "uint256"
        }
      ],
      "payable": false,
      "stateMutability": "view",
      "type": "function"
    },
    {
      "constant": false,
      "inputs": [
        {
          "internalType": "bool",
          "name": "_isWinner",
          "type": "bool"
        }
      ],
      "name": "placeBet",
      "outputs": [],
      "payable": true,
      "stateMutability": "payable",
      "type": "function"
    },
    {
      "constant": false,
      "inputs": [],
      "name": "lockBets",
      "outputs": [],
      "payable": false,
      "stateMutability": "nonpayable",
      "type": "function"
    },
    {
      "constant": false,
      "inputs": [
        {
          "internalType": "uint256",
          "name": "_winner",
          "type": "uint256"
        }
      ],
      "name": "completeRound",
      "outputs": [],
      "payable": false,
      "stateMutability": "nonpayable",
      "type": "function"
    },
    {
      "constant": false,
      "inputs": [],
      "name": "distributeWinnings",
      "outputs": [],
      "payable": false,
      "stateMutability": "nonpayable",
      "type": "function"
    }
  ],
  "bytecode": "0x60806040523480156200001157600080fd5b50604051620012fb380380620012fb833981810160405260608110156200003757600080fd5b81019080805160405193929190846401000000008211156200005857600080fd5b838201915060208201858111156200006f57600080fd5b82518660018202830111640100000000821117156200008d57600080fd5b8083526020830192505050908051906020019080838360005b83811015620000c3578082015181840152602081019050620000a6565b50505050905090810190601f168015620000f15780820380516001836020036101000a031916815260200191505b50604052602001805160405193929190846401000000008211156200011557600080fd5b838201915060208201858111156200012c57600080fd5b82518660018202830111640100000000821117156200014a57600080fd5b8083526020830192505050908051906020019080838360005b838110156200018057808201518184015260208101905062000163565b50505050905090810190601f168015620001ae5780820380516001836020036101000a031916815260200191505b5060405260200180519060200190929190505050336000806101000a81548173ffffffffffffffffffffffffffffffffffffffff021916908373ffffffffffffffffffffffffffffffffffffffff16021790555082600190805190602001906200021a92919062000244565b5081600290805190602001906200023392919062000244565b5080600381905550505050620002f3565b828054600181600116156101000203166002900490600052602060002090601f016020900481019282601f106200028757805160ff1916838001178555620002b8565b82800160010185558215620002b8579182015b82811115620002b75782518255916020019190600101906200029a565b5b509050620002c79190620002cb565b5090565b620002f091905b80821115620002ec576000816000905550600101620002d2565b5090565b90565b610ff880620003036000396000f3fe6080604052600436106100dd5760003560e01c80638da5cb5b1161007f578063befa1e2f11610059578063befa1e2f14610413578063c259be9b1461043e578063d24257c01461046d578063dfbf53ae14610498576100dd565b80638da5cb5b1461029c578063ac17e671146102f3578063b9e91ffd14610383576100dd565b806322af00fa116100bb57806322af00fa1461018e578063625b81861461021b5780637c3521fb146102565780637d2026cd14610285576100dd565b8063096a3778146100e25780630f5ee35c1461011257806322010c1f14610129575b600080fd5b610110600480360360208110156100f857600080fd5b810190808035151590602001909291905050506104c3565b005b34801561011e57600080fd5b506101276107ae565b005b34801561013557600080fd5b506101786004803603602081101561014c57600080fd5b81019080803573ffffffffffffffffffffffffffffffffffffffff1690602001909291905050506108f3565b6040518082815260200191505060405180910390f35b34801561019a57600080fd5b506101c7600480360360208110156101b157600080fd5b810190808035906020019092919050505061090b565b604051808473ffffffffffffffffffffffffffffffffffffffff1673ffffffffffffffffffffffffffffffffffffffff16815260200183815260200182151515158152602001935050505060405180910390f35b34801561022757600080fd5b506102546004803603602081101561023e57600080fd5b810190808035906020019092919050505061096f565b005b34801561026257600080fd5b5061026b610b04565b604051808215151515815260200191505060405180910390f35b34801561029157600080fd5b5061029a610b17565b005b3480156102a857600080fd5b506102b1610d4f565b604051808273ffffffffffffffffffffffffffffffffffffffff1673ffffffffffffffffffffffffffffffffffffffff16815260200191505060405180910390f35b3480156102ff57600080fd5b50610308610d74565b6040518080602001828103825283818151815260200191508051906020019080838360005b8381101561034857808201518184015260208101905061032d565b50505050905090810190601f1680156103755780820380516001836020036101000a031916815260200191505b509250505060405180910390f35b34801561038f57600080fd5b50610398610e12565b6040518080602001828103825283818151815260200191508051906020019080838360005b838110156103d85780820151818401526020810190506103bd565b50505050905090810190601f1680156104055780820380516001836020036101000a031916815260200191505b509250505060405180910390f35b34801561041f57600080fd5b50610428610eb0565b6040518082815260200191505060405180910390f35b34801561044a57600080fd5b50610453610eb6565b604051808215151515815260200191505060405180910390f35b34801561047957600080fd5b50610482610ec9565b6040518082815260200191505060405180910390f35b3480156104a457600080fd5b506104ad610ecf565b6040518082815260200191505060405180910390f35b600354341461053a576040517f08c379a000000000000000000000000000000000000000000000000000000000815260040180806020018281038252601d8152602001807f506c65617365206265742074686520636f727265637420616d6f756e7400000081525060200191505060405180910390fd5b600660009054906101000a900460ff16156105bd576040517f08c379a00000000000000000000000000000000000000000000000000000000081526004018080602001828103825260208152602001807f42657474696e67206973206c6f636b656420666f72207468697320726f756e6481525060200191505060405180910390fd5b6000600860003373ffffffffffffffffffffffffffffffffffffffff1673ffffffffffffffffffffffffffffffffffffffff1681526020019081526020016000205414610672576040517f08c379a000000000000000000000000000000000000000000000000000000000815260040180806020018281038252601d8152602001807f596f75206861766520616c726561647920706c6163656420612062657400000081525060200191505060405180910390fd5b61067a610ed5565b60405180606001604052803373ffffffffffffffffffffffffffffffffffffffff16815260200134815260200183151581525090506007819080600181540180825580915050906001820390600052602060002090600302016000909192909190915060008201518160000160006101000a81548173ffffffffffffffffffffffffffffffffffffffff021916908373ffffffffffffffffffffffffffffffffffffffff1602179055506020820151816001015560408201518160020160006101000a81548160ff021916908315150217905550505050600780549050600860003373ffffffffffffffffffffffffffffffffffffffff1673ffffffffffffffffffffffffffffffffffffffff16815260200190815260200160002081905550346004600082825401925050819055505050565b6000809054906101000a900473ffffffffffffffffffffffffffffffffffffffff1673ffffffffffffffffffffffffffffffffffffffff163373ffffffffffffffffffffffffffffffffffffffff1614610870576040517f08c379a000000000000000000000000000000000000000000000000000000000815260040180806020018281038252601c8152602001807f4f6e6c7920746865206f776e65722063616e206c6f636b20626574730000000081525060200191505060405180910390fd5b600660009054906101000a900460ff16156108d6576040517f08c379a0000000000000000000000000000000000000000000000000000000008152600401808060200182810382526028815260200180610f586028913960400191505060405180910390fd5b6001600660006101000a81548160ff021916908315150217905550565b60086020528060005260406000206000915090505481565b6007818154811061091857fe5b90600052602060002090600302016000915090508060000160009054906101000a900473ffffffffffffffffffffffffffffffffffffffff16908060010154908060020160009054906101000a900460ff16905083565b6000809054906101000a900473ffffffffffffffffffffffffffffffffffffffff1673ffffffffffffffffffffffffffffffffffffffff163373ffffffffffffffffffffffffffffffffffffffff1614610a14576040517f08c379a0000000000000000000000000000000000000000000000000000000008152600401808060200182810382526023815260200180610fa16023913960400191505060405180910390fd5b600660009054906101000a900460ff16610a79576040517f08c379a0000000000000000000000000000000000000000000000000000000008152600401808060200182810382526028815260200180610f0f6028913960400191505060405180910390fd5b600660019054906101000a900460ff1615610adf576040517f08c379a0000000000000000000000000000000000000000000000000000000008152600401808060200182810382526021815260200180610f376021913960400191505060405180910390fd5b806005819055506001600660016101000a81548160ff02191690831515021790555050565b600660019054906101000a900460ff1681565b600660019054906101000a900460ff16610b7c576040517f08c379a0000000000000000000000000000000000000000000000000000000008152600401808060200182810382526021815260200180610f806021913960400191505060405180910390fd5b6000809050600080905060008090505b600780549050811015610c235760078181548110610ba657fe5b906000526020600020906003020160020160009054906101000a900460ff1615610bf25760078181548110610bd757fe5b90600052602060002090600302016001015482019150610c16565b60078181548110610bff57fe5b906000526020600020906003020160010154830192505b8080600101915050610b8c565b5060008090505b600780549050811015610d4a5760078181548110610c4457fe5b906000526020600020906003020160020160009054906101000a900460ff1615610d3d576000828460078481548110610c7957fe5b9060005260206000209060030201600101540281610c9357fe5b04905060078281548110610ca357fe5b906000526020600020906003020160000160009054906101000a900473ffffffffffffffffffffffffffffffffffffffff1673ffffffffffffffffffffffffffffffffffffffff166108fc60078481548110610cfb57fe5b90600052602060002090600302016001015483019081150290604051600060405180830381858888f19350505050158015610d3a573d6000803e3d6000fd5b50505b8080600101915050610c2a565b505050565b6000809054906101000a900473ffffffffffffffffffffffffffffffffffffffff1681565b60018054600181600116156101000203166002900480601f016020809104026020016040519081016040528092919081815260200182805460018160011615610100020316600290048015610e0a5780601f10610ddf57610100808354040283529160200191610e0a565b820191906000526020600020905b815481529060010190602001808311610ded57829003601f168201915b505050505081565b60028054600181600116156101000203166002900480601f016020809104026020016040519081016040528092919081815260200182805460018160011615610100020316600290048015610ea85780601f10610e7d57610100808354040283529160200191610ea8565b820191906000526020600020905b815481529060010190602001808311610e8b57829003601f168201915b505050505081565b60045481565b600660009054906101000a900460ff1681565b60035481565b60055481565b6040518060600160405280600073ffffffffffffffffffffffffffffffffffffffff16815260200160008152602001600015158152509056fe42657474696e67206973206e6f7420796574206c6f636b656420666f72207468697320726f756e6442657474696e6720726f756e6420697320616c726561647920636f6d706c65746542657474696e6720697320616c7265616479206c6f636b656420666f72207468697320726f756e6442657474696e6720726f756e64206973206e6f742079657420636f6d706c6574654f6e6c7920746865206f776e65722063616e20636f6d706c657465206120726f756e64a265627a7a72315820ad6941a9cceb1bd450430e0e88b253e63904d699ed9c3825607b3760bfd52c6064736f6c63430005100032",
  "source": "pragma solidity  0.5.16;\r\n\r\ncontract BettingDapp {\r\n    address public owner;\r\n    string public competitor1;\r\n    string public competitor2;\r\n    uint public betAmount;\r\n    uint public totalBets;\r\n    uint public winner;\r\n    bool public betsLocked;\r\n    bool public roundComplete;\r\n    \r\n    struct Bet {\r\n        address payable bettor;\r\n        uint amount;\r\n        bool isWinner;\r\n    }\r\n    \r\n    Bet[] public bets;\r\n    mapping(address => uint) public bettors;\r\n    \r\n    constructor(string memory _competitor1, string memory _competitor2, uint _betAmount) public {\r\n        owner = msg.sender;\r\n        competitor1 = _competitor1;\r\n        competitor2 = _competitor2;\r\n        betAmount = _betAmount;\r\n    }\r\n    \r\n    function placeBet(bool _isWinner) public payable {\r\n        require(msg.value == betAmount, \"Please bet the correct amount\");\r\n        require(!betsLocked, \"Betting is locked for this round\");\r\n        require(bettors[msg.sender] == 0, \"You have already placed a bet\");\r\n        \r\n        Bet memory newBet = Bet(msg.sender, msg.value, _isWinner);\r\n        bets.push(newBet);\r\n        bettors[msg.sender] = bets.length;\r\n        totalBets += msg.value;\r\n    }\r\n    \r\n    function lockBets() public {\r\n        require(msg.sender == owner, \"Only the owner can lock bets\");\r\n        require(!betsLocked, \"Betting is already locked for this round\");\r\n        \r\n        betsLocked = true;\r\n    }\r\n    \r\n    function completeRound(uint _winner) public {\r\n        require(msg.sender == owner, \"Only the owner can complete a round\");\r\n        require(betsLocked, \"Betting is not yet locked for this round\");\r\n        require(!roundComplete, \"Betting round is already complete\");\r\n        \r\n        winner = _winner;\r\n        roundComplete = true;\r\n    }\r\n    \r\n    function distributeWinnings() public {\r\n        require(roundComplete, \"Betting round is not yet complete\");\r\n        \r\n        uint totalLosers = 0;\r\n        uint totalWinners = 0;\r\n        \r\n        for (uint i = 0; i < bets.length; i++) {\r\n            if (bets[i].isWinner) {\r\n                totalWinners += bets[i].amount;\r\n            } else {\r\n                totalLosers += bets[i].amount;\r\n            }\r\n        }\r\n        \r\n        for (uint j = 0; j < bets.length; j++) {\r\n            if (bets[j].isWinner) {\r\n                uint payout = bets[j].amount * totalLosers / totalWinners;\r\n                bets[j].bettor.transfer(payout + bets[j].amount);\r\n            }\r\n        }\r\n    }\r\n}",
  "sourcePath": "C:\\Users\\lil beep\\Documents\\AA ETHEREUM DISS\\ETANG\\contracts\\Betting.sol",
  "compiler": {
    "name": "solc",
    "version": "0.5.16+commit.9c3226ce.Emscripten.clang"
  },
  "schemaVersion": "3.4.13",
  "updatedAt": "2023-04-03T18:32:17.827Z",
  "devdoc": {
    "methods": {}
  },
  "userdoc": {
    "methods": {}
  }
}