{
  "contractName": "Betting",
  "abi": [
    {
      "inputs": [],
      "stateMutability": "nonpayable",
      "type": "constructor"
    },
    {
      "anonymous": false,
      "inputs": [
        {
          "indexed": false,
          "internalType": "address",
          "name": "bettor",
          "type": "address"
        },
        {
          "indexed": false,
          "internalType": "uint256",
          "name": "amount",
          "type": "uint256"
        },
        {
          "indexed": false,
          "internalType": "int256",
          "name": "competitor",
          "type": "int256"
        },
        {
          "indexed": false,
          "internalType": "uint256",
          "name": "balanceofbettor",
          "type": "uint256"
        }
      ],
      "name": "BetPlaced",
      "type": "event"
    },
    {
      "anonymous": false,
      "inputs": [
        {
          "indexed": false,
          "internalType": "uint256",
          "name": "balance",
          "type": "uint256"
        },
        {
          "indexed": false,
          "internalType": "bool",
          "name": "active",
          "type": "bool"
        },
        {
          "indexed": false,
          "internalType": "uint256",
          "name": "wins",
          "type": "uint256"
        },
        {
          "indexed": false,
          "internalType": "address",
          "name": "Address",
          "type": "address"
        },
        {
          "indexed": false,
          "internalType": "string",
          "name": "name",
          "type": "string"
        }
      ],
      "name": "BettorCreated",
      "type": "event"
    },
    {
      "inputs": [],
      "name": "admin",
      "outputs": [
        {
          "internalType": "address",
          "name": "",
          "type": "address"
        }
      ],
      "stateMutability": "view",
      "type": "function",
      "constant": true
    },
    {
      "inputs": [
        {
          "internalType": "uint256",
          "name": "",
          "type": "uint256"
        }
      ],
      "name": "bets",
      "outputs": [
        {
          "components": [
            {
              "internalType": "uint256",
              "name": "balance",
              "type": "uint256"
            },
            {
              "internalType": "bool",
              "name": "active",
              "type": "bool"
            },
            {
              "internalType": "uint256",
              "name": "wins",
              "type": "uint256"
            },
            {
              "internalType": "address",
              "name": "Address",
              "type": "address"
            },
            {
              "internalType": "string",
              "name": "name",
              "type": "string"
            }
          ],
          "internalType": "struct Betting.Bettor",
          "name": "bettor",
          "type": "tuple"
        },
        {
          "internalType": "uint256",
          "name": "amount",
          "type": "uint256"
        },
        {
          "internalType": "int256",
          "name": "competitor",
          "type": "int256"
        }
      ],
      "stateMutability": "view",
      "type": "function",
      "constant": true
    },
    {
      "inputs": [],
      "name": "bettingLocked",
      "outputs": [
        {
          "internalType": "bool",
          "name": "",
          "type": "bool"
        }
      ],
      "stateMutability": "view",
      "type": "function",
      "constant": true
    },
    {
      "inputs": [],
      "name": "bettingSessionStarted",
      "outputs": [
        {
          "internalType": "bool",
          "name": "",
          "type": "bool"
        }
      ],
      "stateMutability": "view",
      "type": "function",
      "constant": true
    },
    {
      "inputs": [],
      "name": "bettorCount",
      "outputs": [
        {
          "internalType": "int256",
          "name": "",
          "type": "int256"
        }
      ],
      "stateMutability": "view",
      "type": "function",
      "constant": true
    },
    {
      "inputs": [
        {
          "internalType": "uint256",
          "name": "",
          "type": "uint256"
        }
      ],
      "name": "bettors",
      "outputs": [
        {
          "internalType": "uint256",
          "name": "balance",
          "type": "uint256"
        },
        {
          "internalType": "bool",
          "name": "active",
          "type": "bool"
        },
        {
          "internalType": "uint256",
          "name": "wins",
          "type": "uint256"
        },
        {
          "internalType": "address",
          "name": "Address",
          "type": "address"
        },
        {
          "internalType": "string",
          "name": "name",
          "type": "string"
        }
      ],
      "stateMutability": "view",
      "type": "function",
      "constant": true
    },
    {
      "inputs": [],
      "name": "competitor1",
      "outputs": [
        {
          "internalType": "string",
          "name": "",
          "type": "string"
        }
      ],
      "stateMutability": "view",
      "type": "function",
      "constant": true
    },
    {
      "inputs": [],
      "name": "competitor1TotalBets",
      "outputs": [
        {
          "internalType": "uint256",
          "name": "",
          "type": "uint256"
        }
      ],
      "stateMutability": "view",
      "type": "function",
      "constant": true
    },
    {
      "inputs": [],
      "name": "competitor2",
      "outputs": [
        {
          "internalType": "string",
          "name": "",
          "type": "string"
        }
      ],
      "stateMutability": "view",
      "type": "function",
      "constant": true
    },
    {
      "inputs": [],
      "name": "competitor2TotalBets",
      "outputs": [
        {
          "internalType": "uint256",
          "name": "",
          "type": "uint256"
        }
      ],
      "stateMutability": "view",
      "type": "function",
      "constant": true
    },
    {
      "inputs": [],
      "name": "roundCounter",
      "outputs": [
        {
          "internalType": "int256",
          "name": "",
          "type": "int256"
        }
      ],
      "stateMutability": "view",
      "type": "function",
      "constant": true
    },
    {
      "inputs": [],
      "name": "roundStarted",
      "outputs": [
        {
          "internalType": "bool",
          "name": "",
          "type": "bool"
        }
      ],
      "stateMutability": "view",
      "type": "function",
      "constant": true
    },
    {
      "inputs": [],
      "name": "winner",
      "outputs": [
        {
          "internalType": "int256",
          "name": "",
          "type": "int256"
        }
      ],
      "stateMutability": "view",
      "type": "function",
      "constant": true
    },
    {
      "inputs": [],
      "name": "startSession",
      "outputs": [],
      "stateMutability": "nonpayable",
      "type": "function"
    },
    {
      "inputs": [
        {
          "internalType": "string",
          "name": "_competitor1",
          "type": "string"
        },
        {
          "internalType": "string",
          "name": "_competitor2",
          "type": "string"
        }
      ],
      "name": "startRound",
      "outputs": [],
      "stateMutability": "nonpayable",
      "type": "function"
    },
    {
      "inputs": [
        {
          "internalType": "string",
          "name": "_name",
          "type": "string"
        }
      ],
      "name": "setName",
      "outputs": [],
      "stateMutability": "nonpayable",
      "type": "function"
    },
    {
      "inputs": [
        {
          "internalType": "int256",
          "name": "_competitor",
          "type": "int256"
        },
        {
          "internalType": "uint256",
          "name": "_betAmount",
          "type": "uint256"
        }
      ],
      "name": "placeBet",
      "outputs": [],
      "stateMutability": "payable",
      "type": "function",
      "payable": true
    },
    {
      "inputs": [],
      "name": "lockBets",
      "outputs": [],
      "stateMutability": "nonpayable",
      "type": "function"
    },
    {
      "inputs": [
        {
          "internalType": "int256",
          "name": "_winner",
          "type": "int256"
        }
      ],
      "name": "completeRound",
      "outputs": [],
      "stateMutability": "nonpayable",
      "type": "function"
    },
    {
      "inputs": [],
      "name": "settleBets",
      "outputs": [],
      "stateMutability": "nonpayable",
      "type": "function"
    },
    {
      "inputs": [],
      "name": "refundBets",
      "outputs": [],
      "stateMutability": "nonpayable",
      "type": "function"
    },
    {
      "inputs": [
        {
          "internalType": "address",
          "name": "bettorAddress",
          "type": "address"
        }
      ],
      "name": "getBettorBalance",
      "outputs": [
        {
          "internalType": "uint256",
          "name": "",
          "type": "uint256"
        }
      ],
      "stateMutability": "view",
      "type": "function",
      "constant": true
    },
    {
      "inputs": [
        {
          "internalType": "address",
          "name": "bettorAddress",
          "type": "address"
        }
      ],
      "name": "getBettorName",
      "outputs": [
        {
          "internalType": "string",
          "name": "",
          "type": "string"
        }
      ],
      "stateMutability": "view",
      "type": "function",
      "constant": true
    },
    {
      "inputs": [
        {
          "internalType": "address",
          "name": "bettorAddress",
          "type": "address"
        }
      ],
      "name": "getBettor",
      "outputs": [
        {
          "internalType": "uint256",
          "name": "",
          "type": "uint256"
        }
      ],
      "stateMutability": "view",
      "type": "function",
      "constant": true
    },
    {
      "inputs": [
        {
          "internalType": "address",
          "name": "bettorAddress",
          "type": "address"
        }
      ],
      "name": "bettorCheck",
      "outputs": [
        {
          "internalType": "bool",
          "name": "",
          "type": "bool"
        }
      ],
      "stateMutability": "view",
      "type": "function",
      "constant": true
    }
  ],
  "bytecode": "0x608060405234801561001057600080fd5b50600a80546001600160a01b03191633179055600060078190556004805462ffffff19169055600581905560068190556002556122d0806100526000396000f3fe6080604052600436106101665760003560e01c8063a716ab9d116100d1578063c70331371161008a578063f11da30d11610064578063f11da30d146103f8578063f851a4401461040e578063fe0ae16514610446578063febc14b11461045b57600080fd5b8063c7033137146103ae578063d2780c12146103c3578063dfbf53ae146103e257600080fd5b8063a716ab9d1461030e578063ac17e67114610324578063b9e91ffd14610339578063bacba5961461034e578063c0dbf9dd1461036e578063c47f00271461038e57600080fd5b80635a82a702116101235780635a82a702146102665780635b73df741461028657806366274a0c146102a657806371056524146102c6578063a0687fb7146102e6578063a35373af146102f957600080fd5b80630f5ee35c1461016b57806322af00fa14610182578063331cb074146101ba5780633482b644146101de5780633c9229451461020f578063479e2c0b1461023c575b600080fd5b34801561017757600080fd5b50610180610471565b005b34801561018e57600080fd5b506101a261019d366004611ec0565b6104e4565b6040516101b1939291906120f3565b60405180910390f35b3480156101c657600080fd5b506101d060065481565b6040519081526020016101b1565b3480156101ea57600080fd5b506101fe6101f9366004611ec0565b6105f0565b6040516101b1959493929190612155565b34801561021b57600080fd5b5061022f61022a366004611e92565b6106cb565b6040516101b19190611fe0565b34801561024857600080fd5b506004546102569060ff1681565b60405190151581526020016101b1565b34801561027257600080fd5b50610180610281366004611ec0565b61081e565b34801561029257600080fd5b506101d06102a1366004611e92565b610914565b3480156102b257600080fd5b506101d06102c1366004611e92565b6109c4565b3480156102d257600080fd5b506102566102e1366004611e92565b610a76565b6101806102f4366004611ed8565b610aed565b34801561030557600080fd5b50610180611145565b34801561031a57600080fd5b506101d060075481565b34801561033057600080fd5b5061022f611304565b34801561034557600080fd5b5061022f611392565b34801561035a57600080fd5b50610180610369366004611f34565b61139f565b34801561037a57600080fd5b506004546102569062010000900460ff1681565b34801561039a57600080fd5b506101806103a9366004611ef9565b61156d565b3480156103ba57600080fd5b50610180611798565b3480156103cf57600080fd5b5060045461025690610100900460ff1681565b3480156103ee57600080fd5b506101d060025481565b34801561040457600080fd5b506101d060055481565b34801561041a57600080fd5b50600a5461042e906001600160a01b031681565b6040516001600160a01b0390911681526020016101b1565b34801561045257600080fd5b50610180611c5f565b34801561046757600080fd5b506101d060035481565b600a546001600160a01b031633146104a45760405162461bcd60e51b815260040161049b90611ff3565b60405180910390fd5b60045460ff6101009091041615156001146104d15760405162461bcd60e51b815260040161049b906120bc565b6004805462ff0000191662010000179055565b600881815481106104f457600080fd5b60009182526020918290206040805160a081018252600790930290910180548352600181015460ff1615159383019390935260028301549082015260038201546001600160a01b0316606082015260048201805492935090918391608084019161055d90612203565b80601f016020809104026020016040519081016040528092919081815260200182805461058990612203565b80156105d65780601f106105ab576101008083540402835291602001916105d6565b820191906000526020600020905b8154815290600101906020018083116105b957829003601f168201915b505050505081525050908060050154908060060154905083565b6009818154811061060057600080fd5b60009182526020909120600590910201805460018201546002830154600384015460048501805494965060ff9093169491936001600160a01b03909116929061064890612203565b80601f016020809104026020016040519081016040528092919081815260200182805461067490612203565b80156106c15780601f10610696576101008083540402835291602001916106c1565b820191906000526020600020905b8154815290600101906020018083116106a457829003601f168201915b5050505050905085565b606060005b6009548110156107fd57826001600160a01b03166009828154811061070557634e487b7160e01b600052603260045260246000fd5b60009182526020909120600360059092020101546001600160a01b031614156107eb576009818154811061074957634e487b7160e01b600052603260045260246000fd5b9060005260206000209060050201600401805461076590612203565b80601f016020809104026020016040519081016040528092919081815260200182805461079190612203565b80156107de5780601f106107b3576101008083540402835291602001916107de565b820191906000526020600020905b8154815290600101906020018083116107c157829003601f168201915b5050505050915050919050565b806107f58161225e565b9150506106d0565b50506040805180820190915260038152624e2f4160e81b6020820152919050565b600a546001600160a01b031633146108485760405162461bcd60e51b815260040161049b90611ff3565b80600114806108575750806002145b6108985760405162461bcd60e51b815260206004820152601260248201527124b73b30b634b21031b7b6b832ba34ba37b960711b604482015260640161049b565b600254156108e25760405162461bcd60e51b8152602060048201526017602482015276149bdd5b9908185b1c9958591e4818dbdb5c1b195d1959604a1b604482015260640161049b565b60045460ff61010090910416151560011461090f5760405162461bcd60e51b815260040161049b906120bc565b600255565b6000805b60095481101561098857826001600160a01b03166009828154811061094d57634e487b7160e01b600052603260045260246000fd5b60009182526020909120600360059092020101546001600160a01b031614156109765792915050565b806109808161225e565b915050610918565b5060405162461bcd60e51b815260206004820152601060248201526f10995d1d1bdc881b9bdd08199bdd5b9960821b604482015260640161049b565b6000805b600954811015610a6d57826001600160a01b0316600982815481106109fd57634e487b7160e01b600052603260045260246000fd5b60009182526020909120600360059092020101546001600160a01b03161415610a5b5760098181548110610a4157634e487b7160e01b600052603260045260246000fd5b906000526020600020906005020160000154915050919050565b80610a658161225e565b9150506109c8565b50600092915050565b6000805b600954811015610a6d57826001600160a01b031660098281548110610aaf57634e487b7160e01b600052603260045260246000fd5b60009182526020909120600360059092020101546001600160a01b03161415610adb5750600192915050565b80610ae58161225e565b915050610a7a565b80610af7336109c4565b11610b385760405162461bcd60e51b815260206004820152601160248201527002737ba1032b737bab3b410333ab732399607d1b604482015260640161049b565b60045460ff610100909104161515600114610b655760405162461bcd60e51b815260040161049b906120bc565b60045462010000900460ff1615610bce5760405162461bcd60e51b815260206004820152602760248201527f42657474696e67206973206c6f636b65642c20776169742074696c6c206e65786044820152661d081c9bdd5b9960ca1b606482015260840161049b565b600081118015610bdf575033318111155b610bfb5760405162461bcd60e51b815260040161049b90612038565b33301415610c4b5760405162461bcd60e51b815260206004820181905260248201527f43616e6e6f74206265742066726f6d20636f6e74726163742061646472657373604482015260640161049b565b600082138015610c5c575060028213155b610c785760405162461bcd60e51b815260040161049b90612038565b610c8133610a76565b610cdb5760405162461bcd60e51b815260206004820152602560248201527f506c656173652063686f736520796f7572206e616d65206265666f72652062656044820152647474696e6760d81b606482015260840161049b565b60005b600854811015610e8957336001600160a01b031660088281548110610d1357634e487b7160e01b600052603260045260246000fd5b60009182526020909120600360079092020101546001600160a01b03161415610e77578160088281548110610d5857634e487b7160e01b600052603260045260246000fd5b9060005260206000209060070201600501819055508260088281548110610d8f57634e487b7160e01b600052603260045260246000fd5b9060005260206000209060070201600601819055508160088281548110610dc657634e487b7160e01b600052603260045260246000fd5b90600052602060002090600702016000016000016000828254610de991906121ec565b925050819055507f73e358482860a99dd2ef2a70e93ab769511cd83e476fbbde7091a7c22133d00b33838560088581548110610e3557634e487b7160e01b600052603260045260246000fd5b600091825260209182902060079091020154604080516001600160a01b03909616865291850193909352830152606082015260800160405180910390a1505050565b80610e818161225e565b915050610cde565b50600860405180606001604052806009610ea233610914565b81548110610ec057634e487b7160e01b600052603260045260246000fd5b60009182526020918290206040805160a081018252600590930290910180548352600181015460ff1615159383019390935260028301549082015260038201546001600160a01b03166060820152600482018054919291608084019190610f2690612203565b80601f0160208091040260200160405190810160405280929190818152602001828054610f5290612203565b8015610f9f5780601f10610f7457610100808354040283529160200191610f9f565b820191906000526020600020905b815481529060010190602001808311610f8257829003601f168201915b5050509190925250505081526020808201859052604091820186905283546001808201865560009586529482902084518051600790930290910191825580830151958201805460ff19169615159690961790955591840151600283015560608401516003830180546001600160a01b0319166001600160a01b0390921691909117905560808401518051939492938492611040926004850192910190611cbd565b5050506020820151816005015560408201518160060155505080600961106533610914565b8154811061108357634e487b7160e01b600052603260045260246000fd5b906000526020600020906005020160000160008282546110a391906121ec565b909155507f73e358482860a99dd2ef2a70e93ab769511cd83e476fbbde7091a7c22133d00b90503382846110d6836109c4565b604080516001600160a01b039095168552602085019390935291830152606082015260800160405180910390a1816001141561112957806005600082825461111e9190612195565b909155506111419050565b806006600082825461113b9190612195565b90915550505b5050565b600a546001600160a01b0316331461116f5760405162461bcd60e51b815260040161049b90611ff3565b600254156111b95760405162461bcd60e51b8152602060048201526017602482015276149bdd5b9908185b1c9958591e4818dbdb5c1b195d1959604a1b604482015260640161049b565b60045460ff6101009091041615156001146111e65760405162461bcd60e51b815260040161049b906120bc565b60005b6008548110156112fc576008818154811061121457634e487b7160e01b600052603260045260246000fd5b906000526020600020906007020160050154600961126e6008848154811061124c57634e487b7160e01b600052603260045260246000fd5b60009182526020909120600360079092020101546001600160a01b0316610914565b8154811061128c57634e487b7160e01b600052603260045260246000fd5b906000526020600020906005020160000160008282546112ac9190612195565b925050819055506000600882815481106112d657634e487b7160e01b600052603260045260246000fd5b6000918252602090912060056007909202010155806112f48161225e565b9150506111e9565b506000600255565b6000805461131190612203565b80601f016020809104026020016040519081016040528092919081815260200182805461133d90612203565b801561138a5780601f1061135f5761010080835404028352916020019161138a565b820191906000526020600020905b81548152906001019060200180831161136d57829003601f168201915b505050505081565b6001805461131190612203565b600a546001600160a01b031633146113c95760405162461bcd60e51b815260040161049b90611ff3565b60045460ff1661141b5760405162461bcd60e51b815260206004820152601760248201527f53657373696f6e206e6f74207965742053746172746564000000000000000000604482015260640161049b565b6000825111801561142e57506032825111155b61147a5760405162461bcd60e51b815260206004820152601960248201527f496e76616c696420636f6d70657469746f722031206e616d6500000000000000604482015260640161049b565b6000815111801561148d57506032815111155b6114d95760405162461bcd60e51b815260206004820152601960248201527f496e76616c696420636f6d70657469746f722032206e616d6500000000000000604482015260640161049b565b600254156114f95760405162461bcd60e51b815260040161049b90612085565b815161150c906000906020850190611cbd565b508051611520906001906020840190611cbd565b506004805461ff00191661010017905560006005819055600681905561154890600890611d41565b6004805462ff000019169055600380549060006115648361223e565b91905055505050565b60028151101580156115815750600c815111155b6115e35760405162461bcd60e51b815260206004820152602d60248201527f4e616d65206d757374206265206265747765656e203220616e6420313220636860448201526c6172616374657273206c6f6e6760981b606482015260840161049b565b6115ec33610a76565b61174757600780549060006116008361223e565b90915550506040805160a0810182526064815260016020808301828152600094840185815233606086019081526080860188815260098054968701815590975285517f6e1540171b6c0c960b71a7020d9f60077f6af931a8bbf590da0223dacf75c7af600590960295860190815592517f6e1540171b6c0c960b71a7020d9f60077f6af931a8bbf590da0223dacf75c7b08601805460ff191691151591909117905590517f6e1540171b6c0c960b71a7020d9f60077f6af931a8bbf590da0223dacf75c7b1850155517f6e1540171b6c0c960b71a7020d9f60077f6af931a8bbf590da0223dacf75c7b2840180546001600160a01b0319166001600160a01b0390921691909117905593518051939493611741937f6e1540171b6c0c960b71a7020d9f60077f6af931a8bbf590da0223dacf75c7b301929190910190611cbd565b50505050565b80600961175333610914565b8154811061177157634e487b7160e01b600052603260045260246000fd5b90600052602060002090600502016004019080519060200190611141929190611cbd565b50565b600a546001600160a01b031633146117c25760405162461bcd60e51b815260040161049b90611ff3565b6002546117e15760405162461bcd60e51b815260040161049b90612085565b600080600060088054905067ffffffffffffffff81111561181257634e487b7160e01b600052604160045260246000fd5b60405190808252806020026020018201604052801561188d57816020015b61187a604080516101008101909152600060608083018281526080840183905260a0840183905260c084019290925260e08301528190815260200160008152602001600081525090565b8152602001906001900390816118305790505b5090506000805b600854811015611b1557600254600882815481106118c257634e487b7160e01b600052603260045260246000fd5b9060005260206000209060070201600601541415611ac257600881815481106118fb57634e487b7160e01b600052603260045260246000fd5b60009182526020909120604080516101008101909152600790920201805460608301908152600182015460ff1615156080840152600282015460a084015260038201546001600160a01b031660c0840152600482018054849291849160e08501919061196690612203565b80601f016020809104026020016040519081016040528092919081815260200182805461199290612203565b80156119df5780601f106119b4576101008083540402835291602001916119df565b820191906000526020600020905b8154815290600101906020018083116119c257829003601f168201915b505050505081525050815260200160058201548152602001600682015481525050838381518110611a2057634e487b7160e01b600052603260045260246000fd5b60200260200101819052508180611a369061225e565b92505060088181548110611a5a57634e487b7160e01b600052603260045260246000fd5b90600052602060002090600702016005015485611a779190612195565b945060088181548110611a9a57634e487b7160e01b600052603260045260246000fd5b600091825260208220600260079092020101805491611ab88361225e565b9190505550611b03565b60088181548110611ae357634e487b7160e01b600052603260045260246000fd5b90600052602060002090600702016005015484611b009190612195565b93505b80611b0d8161225e565b915050611894565b506000611b228585612195565b905060005b82811015611c52576000611b69858381518110611b5457634e487b7160e01b600052603260045260246000fd5b60200260200101516000015160600151610914565b905082858381518110611b8c57634e487b7160e01b600052603260045260246000fd5b60200260200101516020015188611ba391906121ad565b611bad91906121cd565b60098281548110611bce57634e487b7160e01b600052603260045260246000fd5b90600052602060002090600502016000016000828254611bee9190612195565b92505081905550600160098281548110611c1857634e487b7160e01b600052603260045260246000fd5b90600052602060002090600502016002016000828254611c389190612195565b90915550829150611c4a90508161225e565b915050611b27565b5050600060025550505050565b600a546001600160a01b03163314611c895760405162461bcd60e51b815260040161049b90611ff3565b60025415611ca95760405162461bcd60e51b815260040161049b90612085565b6004805460ff191660011790556000600355565b828054611cc990612203565b90600052602060002090601f016020900481019282611ceb5760008555611d31565b82601f10611d0457805160ff1916838001178555611d31565b82800160010185558215611d31579182015b82811115611d31578251825591602001919060010190611d16565b50611d3d929150611d62565b5090565b50805460008255600702906000526020600020908101906117959190611d77565b5b80821115611d3d5760008155600101611d63565b80821115611d3d57600080825560018201805460ff19169055600282018190556003820180546001600160a01b03191690558181611db86004830182611dd1565b5050600060058301819055600683015550600701611d77565b508054611ddd90612203565b6000825580601f10611ded575050565b601f0160209004906000526020600020908101906117959190611d62565b600082601f830112611e1b578081fd5b813567ffffffffffffffff80821115611e3657611e36612284565b604051601f8301601f19908116603f01168101908282118183101715611e5e57611e5e612284565b81604052838152866020858801011115611e76578485fd5b8360208701602083013792830160200193909352509392505050565b600060208284031215611ea3578081fd5b81356001600160a01b0381168114611eb9578182fd5b9392505050565b600060208284031215611ed1578081fd5b5035919050565b60008060408385031215611eea578081fd5b50508035926020909101359150565b600060208284031215611f0a578081fd5b813567ffffffffffffffff811115611f20578182fd5b611f2c84828501611e0b565b949350505050565b60008060408385031215611f46578182fd5b823567ffffffffffffffff80821115611f5d578384fd5b611f6986838701611e0b565b93506020850135915080821115611f7e578283fd5b50611f8b85828601611e0b565b9150509250929050565b60008151808452815b81811015611fba57602081850181015186830182015201611f9e565b81811115611fcb5782602083870101525b50601f01601f19169290920160200192915050565b602081526000611eb96020830184611f95565b60208082526025908201527f4f6e6c79207468652061646d696e2063616e2063616c6c20746869732066756e60408201526431ba34b7b760d91b606082015260800190565b6020808252602d908201527f426574206d7573742062652067726561746572207468616e203020627574206c60408201526c657373207468616e203130302160981b606082015260800190565b60208082526017908201527f526f756e64206e6f742079657420636f6d706c65746564000000000000000000604082015260600190565b60208082526019908201527f526f756e6420686173206e6f7420737461727465642079657400000000000000604082015260600190565b6060815283516060820152602084015115156080820152604084015160a082015260018060a01b0360608501511660c08201526000608085015160a060e0840152612142610100840182611f95565b6020840195909552505060400152919050565b858152841515602082015283604082015260018060a01b038316606082015260a06080820152600061218a60a0830184611f95565b979650505050505050565b600082198211156121a8576121a861226e565b500190565b6000826121c857634e487b7160e01b81526012600452602481fd5b500490565b60008160001904831182151516156121e7576121e761226e565b500290565b6000828210156121fe576121fe61226e565b500390565b600181811c9082168061221757607f821691505b6020821081141561223857634e487b7160e01b600052602260045260246000fd5b50919050565b60006001600160ff1b038214156122575761225761226e565b5060010190565b6000600019821415612257576122575b634e487b7160e01b600052601160045260246000fd5b634e487b7160e01b600052604160045260246000fdfea2646970667358221220cc0fadf61e2d378ca9143215d51b8a51898a92700a2bde4a5d79202e4eef994964736f6c63430008040033",
  "immutableReferences": {},
  "source": "// SPDX-License-Identifier: MIT\r\npragma solidity ^0.8.4;\r\nimport \"@openzeppelin/contracts/utils/math/SafeMath.sol\";\r\nimport \"hardhat/console.sol\";\r\n\r\n\r\ncontract Betting {\r\n\r\n    using SafeMath for uint;\r\n\r\n    string public competitor1;\r\n    string public competitor2;\r\n    int public winner;\r\n    int public roundCounter;\r\n    bool public bettingSessionStarted;\r\n    bool public roundStarted;\r\n    bool public bettingLocked;\r\n    uint256 public competitor1TotalBets;\r\n    uint256 public competitor2TotalBets;\r\n    int public bettorCount;\r\n\r\n\r\n    struct Bet {\r\n        Bettor bettor;\r\n        uint amount;\r\n        int competitor;\r\n        \r\n    }\r\n    struct Bettor {\r\n        uint balance;\r\n        bool active;\r\n        uint wins;\r\n        address Address;\r\n        string name;\r\n        \r\n    }\r\n\r\n    Bet[] public bets;\r\n    Bettor[] public bettors;\r\n\r\n    address public admin;\r\n\r\n    constructor() public {\r\n        admin = msg.sender;\r\n        bettorCount = 0;\r\n        bettingSessionStarted = false;\r\n        roundStarted = false;\r\n        bettingLocked = false;\r\n        competitor1TotalBets = 0;\r\n        competitor2TotalBets = 0;\r\n        winner = 0;\r\n    }\r\n\r\n    modifier onlyAdmin {\r\n        require(msg.sender == admin, \"Only the admin can call this function\");\r\n        _;\r\n    }\r\n\r\n    function startSession() public onlyAdmin {\r\n        require(winner == 0, \"Round not yet completed\");\r\n        bettingSessionStarted = true;\r\n        roundCounter = 0;\r\n    }\r\n\r\n    function startRound(string memory _competitor1, string memory _competitor2) public onlyAdmin {\r\n        require(bettingSessionStarted, \"Session not yet Started\");\r\n        require(bytes(_competitor1).length > 0 && bytes(_competitor1).length <= 50, \"Invalid competitor 1 name\");\r\n        require(bytes(_competitor2).length > 0 && bytes(_competitor2).length <= 50, \"Invalid competitor 2 name\");\r\n        require(winner == 0, \"Round not yet completed\");\r\n\r\n        competitor1 = _competitor1;\r\n        competitor2 = _competitor2;\r\n        roundStarted = true;\r\n        competitor1TotalBets = 0;\r\n        competitor2TotalBets = 0;\r\n        delete bets;\r\n        bettingLocked = false;\r\n        roundCounter++;\r\n    }\r\n    \r\n    function setName(string memory _name) public {\r\n        require(bytes(_name).length >= 2 && bytes(_name).length <= 12, \"Name must be between 2 and 12 characters long\" );\r\n\r\n        // If bettor doesn't exist then create the Bettor and add to array\r\n        if (!bettorCheck(msg.sender)) {\r\n            bettorCount ++;\r\n            bettors.push(Bettor({\r\n                Address: msg.sender,\r\n                balance: 100,\r\n                wins: 0,\r\n                active: true,\r\n                name: _name\r\n            }));\r\n        }else{\r\n            bettors[getBettor(msg.sender)].name = _name;\r\n        }\r\n        \r\n    }\r\n\r\n\r\n    function placeBet(int _competitor, uint _betAmount) public payable {\r\n        require(getBettorBalance(payable(msg.sender)) > _betAmount, \"Not enough funds \");\r\n        require(roundStarted == true, \"Round has not started yet\");\r\n        require(bettingLocked == false, \"Betting is locked, wait till next round\");\r\n        require(_betAmount > 0 && _betAmount <= msg.sender.balance, \"Bet must be greater than 0 but less than 100!\");\r\n        require(msg.sender != address(this), \"Cannot bet from contract address\");\r\n        require(_competitor > 0 && _competitor <= 2, \"Bet must be greater than 0 but less than 100!\");\r\n        require(bettorCheck(msg.sender), \"Please chose your name before betting\");\r\n\r\n\r\n        for (uint i = 0; i < bets.length; i++) {\r\n            if (bets[i].bettor.Address == msg.sender) {\r\n                bets[i].amount = _betAmount;\r\n                bets[i].competitor = _competitor;\r\n                bets[i].bettor.balance -= _betAmount;\r\n                emit BetPlaced(msg.sender, _betAmount, _competitor,bets[i].bettor.balance);\r\n                return;\r\n            }\r\n        }\r\n\r\n        bets.push(Bet({\r\n            bettor: bettors[getBettor(msg.sender)],\r\n            amount: _betAmount,\r\n            competitor: _competitor\r\n        }));\r\n        bettors[getBettor(msg.sender)].balance -= _betAmount;\r\n        emit BetPlaced(msg.sender, _betAmount, _competitor, getBettorBalance(msg.sender));\r\n        if (_competitor == 1) {\r\n            competitor1TotalBets += _betAmount;\r\n        } else {\r\n            competitor2TotalBets += _betAmount;\r\n        }\r\n    }\r\n\r\n    function lockBets() public onlyAdmin {\r\n        require(roundStarted == true, \"Round has not started yet\");\r\n        bettingLocked = true;\r\n    }\r\n\r\n    function completeRound(int _winner) public onlyAdmin {\r\n        require(_winner == 1 || _winner == 2, \"Invalid competitor\");\r\n        require(winner == 0, \"Round already completed\");\r\n        require(roundStarted == true, \"Round has not started yet\");\r\n\r\n        winner = _winner;\r\n    }\r\n\r\n    function settleBets() public onlyAdmin {\r\n        require(winner != 0, \"Round not yet completed\");\r\n\r\n        uint totalAmountWinning = 0;\r\n        uint totalAmountLosing = 0;\r\n        Bet[] memory winningBets = new Bet[](bets.length);\r\n\r\n        // Create an array of all bets that were placed on the winner and add up the total amount placed on the loser and the winner\r\n        uint numWinningBets = 0;\r\n        for (uint i = 0; i < bets.length; i++) {\r\n            if (bets[i].competitor == winner) {\r\n                winningBets[numWinningBets] = bets[i];\r\n                numWinningBets++;\r\n                totalAmountWinning += bets[i].amount;\r\n                bets[i].bettor.wins++;\r\n            } else {\r\n                totalAmountLosing += bets[i].amount;\r\n            }\r\n        }\r\n\r\n        // Calculate the total amount of money won by the winning bettors\r\n        uint totalPool = totalAmountLosing + totalAmountWinning;\r\n        for (uint i = 0; i < numWinningBets; i++) {\r\n            // Calculate the amount to transfer to the bettor\r\n            uint instBettor = getBettor(winningBets[i].bettor.Address);\r\n            bettors[instBettor].balance += ((totalAmountWinning / winningBets[i].amount) * totalPool);\r\n            bettors[instBettor].wins += 1;\r\n        }\r\n        winner = 0;\r\n    }\r\n\r\n\r\n    function refundBets() public onlyAdmin {\r\n        require(winner == 0, \"Round already completed\");\r\n        require(roundStarted == true, \"Round has not started yet\");\r\n\r\n        for (uint i = 0; i < bets.length; i++) {\r\n            bettors[getBettor(bets[i].bettor.Address)].balance += bets[i].amount;\r\n            bets[i].amount = 0;\r\n        }\r\n        winner = 0;\r\n    }\r\n\r\n    // Assisting functions\r\n\r\n    function getBettorBalance(address bettorAddress) public view returns (uint) {\r\n        for (uint i = 0; i < bettors.length; i++) {\r\n            if (bettors[i].Address == bettorAddress) {\r\n                return bettors[i].balance;\r\n            }\r\n        }\r\n        // If the address is not found, return 0\r\n        return 0;\r\n    }\r\n    function getBettorName(address bettorAddress) public view returns (string memory) {\r\n        for (uint i = 0; i < bettors.length; i++) {\r\n            if (bettors[i].Address == bettorAddress) {\r\n                return bettors[i].name;\r\n            }\r\n        }\r\n        // If the bettor is not found, return N/A\r\n        return \"N/A\";\r\n    }\r\n    function getBettor(address bettorAddress) public view returns (uint) {\r\n        for (uint i = 0; i < bettors.length; i++) {\r\n            if (bettors[i].Address == bettorAddress) {\r\n                // If bettor is found, return the bettor's place in array\r\n                return i;\r\n            }\r\n        }\r\n        // If the bettor is not found, revert\r\n        revert(\"Bettor not found\");\r\n    }\r\n    function bettorCheck(address bettorAddress) public view returns (bool) {\r\n        for (uint i = 0; i < bettors.length; i++) {\r\n            if (bettors[i].Address == bettorAddress) {\r\n                return true;\r\n            }\r\n        }\r\n        // If the address is not found, return false\r\n        return false;\r\n\r\n    }\r\n\r\n\r\n    event BetPlaced(address bettor, uint amount, int competitor, uint balanceofbettor);\r\n    event BettorCreated(uint balance, bool active, uint wins, address Address, string name);\r\n}\r\n\r\n\r\n\r\n",
  "sourcePath": "C:\\Users\\lil beep\\Documents\\GitHub\\etang.github.io\\contracts\\Betting.sol",
  "compiler": {
    "name": "solc",
    "version": "0.8.4+commit.c7e474f2.Emscripten.clang"
  },
  "schemaVersion": "3.4.13",
  "updatedAt": "2023-05-06T16:26:53.422Z",
  "networkType": "ethereum",
  "devdoc": {
    "kind": "dev",
    "methods": {},
    "version": 1
  },
  "userdoc": {
    "kind": "user",
    "methods": {},
    "version": 1
  }
}